{
  "contractName": "Gana",
  "abi": [
    {
      "inputs": [],
      "stateMutability": "nonpayable",
      "type": "constructor"
    },
    {
      "anonymous": false,
      "inputs": [
        {
          "indexed": true,
          "internalType": "address",
          "name": "owner",
          "type": "address"
        },
        {
          "indexed": true,
          "internalType": "address",
          "name": "approved",
          "type": "address"
        },
        {
          "indexed": true,
          "internalType": "uint256",
          "name": "tokenId",
          "type": "uint256"
        }
      ],
      "name": "Approval",
      "type": "event"
    },
    {
      "anonymous": false,
      "inputs": [
        {
          "indexed": true,
          "internalType": "address",
          "name": "owner",
          "type": "address"
        },
        {
          "indexed": true,
          "internalType": "address",
          "name": "operator",
          "type": "address"
        },
        {
          "indexed": false,
          "internalType": "bool",
          "name": "approved",
          "type": "bool"
        }
      ],
      "name": "ApprovalForAll",
      "type": "event"
    },
    {
      "anonymous": false,
      "inputs": [
        {
          "indexed": true,
          "internalType": "address",
          "name": "previousOwner",
          "type": "address"
        },
        {
          "indexed": true,
          "internalType": "address",
          "name": "newOwner",
          "type": "address"
        }
      ],
      "name": "OwnershipTransferred",
      "type": "event"
    },
    {
      "anonymous": false,
      "inputs": [
        {
          "indexed": false,
          "internalType": "address",
          "name": "account",
          "type": "address"
        }
      ],
      "name": "Paused",
      "type": "event"
    },
    {
      "anonymous": false,
      "inputs": [
        {
          "indexed": true,
          "internalType": "address",
          "name": "from",
          "type": "address"
        },
        {
          "indexed": true,
          "internalType": "address",
          "name": "to",
          "type": "address"
        },
        {
          "indexed": true,
          "internalType": "uint256",
          "name": "tokenId",
          "type": "uint256"
        }
      ],
      "name": "Transfer",
      "type": "event"
    },
    {
      "anonymous": false,
      "inputs": [
        {
          "indexed": false,
          "internalType": "address",
          "name": "account",
          "type": "address"
        }
      ],
      "name": "Unpaused",
      "type": "event"
    },
    {
      "inputs": [
        {
          "internalType": "address",
          "name": "to",
          "type": "address"
        },
        {
          "internalType": "uint256",
          "name": "tokenId",
          "type": "uint256"
        }
      ],
      "name": "approve",
      "outputs": [],
      "stateMutability": "nonpayable",
      "type": "function"
    },
    {
      "inputs": [
        {
          "internalType": "address",
          "name": "owner",
          "type": "address"
        }
      ],
      "name": "balanceOf",
      "outputs": [
        {
          "internalType": "uint256",
          "name": "",
          "type": "uint256"
        }
      ],
      "stateMutability": "view",
      "type": "function",
      "constant": true
    },
    {
      "inputs": [
        {
          "internalType": "uint256",
          "name": "tokenId",
          "type": "uint256"
        }
      ],
      "name": "getApproved",
      "outputs": [
        {
          "internalType": "address",
          "name": "",
          "type": "address"
        }
      ],
      "stateMutability": "view",
      "type": "function",
      "constant": true
    },
    {
      "inputs": [
        {
          "internalType": "address",
          "name": "owner",
          "type": "address"
        },
        {
          "internalType": "address",
          "name": "operator",
          "type": "address"
        }
      ],
      "name": "isApprovedForAll",
      "outputs": [
        {
          "internalType": "bool",
          "name": "",
          "type": "bool"
        }
      ],
      "stateMutability": "view",
      "type": "function",
      "constant": true
    },
    {
      "inputs": [],
      "name": "name",
      "outputs": [
        {
          "internalType": "string",
          "name": "",
          "type": "string"
        }
      ],
      "stateMutability": "view",
      "type": "function",
      "constant": true
    },
    {
      "inputs": [],
      "name": "owner",
      "outputs": [
        {
          "internalType": "address",
          "name": "",
          "type": "address"
        }
      ],
      "stateMutability": "view",
      "type": "function",
      "constant": true
    },
    {
      "inputs": [
        {
          "internalType": "uint256",
          "name": "tokenId",
          "type": "uint256"
        }
      ],
      "name": "ownerOf",
      "outputs": [
        {
          "internalType": "address",
          "name": "",
          "type": "address"
        }
      ],
      "stateMutability": "view",
      "type": "function",
      "constant": true
    },
    {
      "inputs": [],
      "name": "paused",
      "outputs": [
        {
          "internalType": "bool",
          "name": "",
          "type": "bool"
        }
      ],
      "stateMutability": "view",
      "type": "function",
      "constant": true
    },
    {
      "inputs": [],
      "name": "renounceOwnership",
      "outputs": [],
      "stateMutability": "nonpayable",
      "type": "function"
    },
    {
      "inputs": [
        {
          "internalType": "address",
          "name": "operator",
          "type": "address"
        },
        {
          "internalType": "bool",
          "name": "approved",
          "type": "bool"
        }
      ],
      "name": "setApprovalForAll",
      "outputs": [],
      "stateMutability": "nonpayable",
      "type": "function"
    },
    {
      "inputs": [
        {
          "internalType": "bytes4",
          "name": "interfaceId",
          "type": "bytes4"
        }
      ],
      "name": "supportsInterface",
      "outputs": [
        {
          "internalType": "bool",
          "name": "",
          "type": "bool"
        }
      ],
      "stateMutability": "view",
      "type": "function",
      "constant": true
    },
    {
      "inputs": [],
      "name": "symbol",
      "outputs": [
        {
          "internalType": "string",
          "name": "",
          "type": "string"
        }
      ],
      "stateMutability": "view",
      "type": "function",
      "constant": true
    },
    {
      "inputs": [
        {
          "internalType": "uint256",
          "name": "tokenId",
          "type": "uint256"
        }
      ],
      "name": "tokenURI",
      "outputs": [
        {
          "internalType": "string",
          "name": "",
          "type": "string"
        }
      ],
      "stateMutability": "view",
      "type": "function",
      "constant": true
    },
    {
      "inputs": [
        {
          "internalType": "address",
          "name": "from",
          "type": "address"
        },
        {
          "internalType": "address",
          "name": "to",
          "type": "address"
        },
        {
          "internalType": "uint256",
          "name": "tokenId",
          "type": "uint256"
        }
      ],
      "name": "transferFrom",
      "outputs": [],
      "stateMutability": "nonpayable",
      "type": "function"
    },
    {
      "inputs": [
        {
          "internalType": "address",
          "name": "newOwner",
          "type": "address"
        }
      ],
      "name": "transferOwnership",
      "outputs": [],
      "stateMutability": "nonpayable",
      "type": "function"
    },
    {
      "inputs": [
        {
          "internalType": "address",
          "name": "from",
          "type": "address"
        },
        {
          "internalType": "address",
          "name": "to",
          "type": "address"
        },
        {
          "internalType": "uint256",
          "name": "tokenId",
          "type": "uint256"
        }
      ],
      "name": "safeTransferFrom",
      "outputs": [],
      "stateMutability": "nonpayable",
      "type": "function"
    },
    {
      "inputs": [
        {
          "internalType": "address",
          "name": "from",
          "type": "address"
        },
        {
          "internalType": "address",
          "name": "to",
          "type": "address"
        },
        {
          "internalType": "uint256",
          "name": "tokenId",
          "type": "uint256"
        },
        {
          "internalType": "bytes",
          "name": "_data",
          "type": "bytes"
        }
      ],
      "name": "safeTransferFrom",
      "outputs": [],
      "stateMutability": "nonpayable",
      "type": "function"
    },
    {
      "inputs": [
        {
          "internalType": "uint256",
          "name": "tokenId",
          "type": "uint256"
        }
      ],
      "name": "retrieveTransferCounts",
      "outputs": [
        {
          "internalType": "uint32",
          "name": "transferCount",
          "type": "uint32"
        }
      ],
      "stateMutability": "view",
      "type": "function",
      "constant": true
    },
    {
      "inputs": [
        {
          "internalType": "uint256",
          "name": "tokenId",
          "type": "uint256"
        }
      ],
      "name": "retrieveTransferHistory",
      "outputs": [
        {
          "internalType": "uint256[]",
          "name": "timeStamp",
          "type": "uint256[]"
        },
        {
          "internalType": "address[]",
          "name": "to",
          "type": "address[]"
        }
      ],
      "stateMutability": "view",
      "type": "function",
      "constant": true
    },
    {
      "inputs": [
        {
          "internalType": "address",
          "name": "to",
          "type": "address"
        }
      ],
      "name": "mint",
      "outputs": [
        {
          "internalType": "uint256",
          "name": "tokenId",
          "type": "uint256"
        }
      ],
      "stateMutability": "nonpayable",
      "type": "function"
    },
    {
      "inputs": [],
      "name": "pause",
      "outputs": [],
      "stateMutability": "nonpayable",
      "type": "function"
    },
    {
      "inputs": [],
      "name": "unpause",
      "outputs": [],
      "stateMutability": "nonpayable",
      "type": "function"
    }
  ],
  "bytecode": "0x60806040523480156200001157600080fd5b506040518060400160405280600481526020017f47616e61000000000000000000000000000000000000000000000000000000008152506040518060400160405280600481526020017f67616e6100000000000000000000000000000000000000000000000000000000815250816000908051906020019062000096929190620001c1565b508060019080519060200190620000af929190620001c1565b5050506000600660006101000a81548160ff021916908315150217905550620000ed620000e1620000f360201b60201c565b620000fb60201b60201c565b620002d6565b600033905090565b6000600660019054906101000a900473ffffffffffffffffffffffffffffffffffffffff16905081600660016101000a81548173ffffffffffffffffffffffffffffffffffffffff021916908373ffffffffffffffffffffffffffffffffffffffff1602179055508173ffffffffffffffffffffffffffffffffffffffff168173ffffffffffffffffffffffffffffffffffffffff167f8be0079c531659141344cd1fd0a4f28419497f9722a3daafe3b4186f6b6457e060405160405180910390a35050565b828054620001cf90620002a0565b90600052602060002090601f016020900481019282620001f357600085556200023f565b82601f106200020e57805160ff19168380011785556200023f565b828001600101855582156200023f579182015b828111156200023e57825182559160200191906001019062000221565b5b5090506200024e919062000252565b5090565b5b808211156200026d57600081600090555060010162000253565b5090565b7f4e487b7100000000000000000000000000000000000000000000000000000000600052602260045260246000fd5b60006002820490506001821680620002b957607f821691505b60208210811415620002d057620002cf62000271565b5b50919050565b61390380620002e66000396000f3fe608060405234801561001057600080fd5b50600436106101425760003560e01c8063715018a6116100b8578063a22cb4651161007c578063a22cb46514610351578063b3660b991461036d578063b88d4fde1461039e578063c87b56dd146103ba578063e985e9c5146103ea578063f2fde38b1461041a57610142565b8063715018a6146102d15780638456cb59146102db578063891bad27146102e55780638da5cb5b1461031557806395d89b411461033357610142565b80633f4ba83a1161010a5780633f4ba83a146101fd57806342842e0e146102075780635c975abb146102235780636352211e146102415780636a6278421461027157806370a08231146102a157610142565b806301ffc9a71461014757806306fdde0314610177578063081812fc14610195578063095ea7b3146101c557806323b872dd146101e1575b600080fd5b610161600480360381019061015c919061230f565b610436565b60405161016e9190612357565b60405180910390f35b61017f610518565b60405161018c919061240b565b60405180910390f35b6101af60048036038101906101aa9190612463565b6105aa565b6040516101bc91906124d1565b60405180910390f35b6101df60048036038101906101da9190612518565b61062f565b005b6101fb60048036038101906101f69190612558565b610747565b005b6102056107a7565b005b610221600480360381019061021c9190612558565b61082d565b005b61022b61084d565b6040516102389190612357565b60405180910390f35b61025b60048036038101906102569190612463565b610864565b60405161026891906124d1565b60405180910390f35b61028b600480360381019061028691906125ab565b610916565b60405161029891906125e7565b60405180910390f35b6102bb60048036038101906102b691906125ab565b610a0b565b6040516102c891906125e7565b60405180910390f35b6102d9610ac3565b005b6102e3610b4b565b005b6102ff60048036038101906102fa9190612463565b610bd1565b60405161030c9190612621565b60405180910390f35b61031d610c7a565b60405161032a91906124d1565b60405180910390f35b61033b610ca4565b604051610348919061240b565b60405180910390f35b61036b60048036038101906103669190612668565b610d36565b005b61038760048036038101906103829190612463565b610d4c565b604051610395929190612824565b60405180910390f35b6103b860048036038101906103b39190612990565b611054565b005b6103d460048036038101906103cf9190612463565b6110b8565b6040516103e1919061240b565b60405180910390f35b61040460048036038101906103ff9190612a13565b61115f565b6040516104119190612357565b60405180910390f35b610434600480360381019061042f91906125ab565b6111f3565b005b60007f80ac58cd000000000000000000000000000000000000000000000000000000007bffffffffffffffffffffffffffffffffffffffffffffffffffffffff1916827bffffffffffffffffffffffffffffffffffffffffffffffffffffffff1916148061050157507f5b5e139f000000000000000000000000000000000000000000000000000000007bffffffffffffffffffffffffffffffffffffffffffffffffffffffff1916827bffffffffffffffffffffffffffffffffffffffffffffffffffffffff1916145b806105115750610510826112eb565b5b9050919050565b60606000805461052790612a82565b80601f016020809104026020016040519081016040528092919081815260200182805461055390612a82565b80156105a05780601f10610575576101008083540402835291602001916105a0565b820191906000526020600020905b81548152906001019060200180831161058357829003601f168201915b5050505050905090565b60006105b582611355565b6105f4576040517f08c379a00000000000000000000000000000000000000000000000000000000081526004016105eb90612b26565b60405180910390fd5b6004600083815260200190815260200160002060009054906101000a900473ffffffffffffffffffffffffffffffffffffffff169050919050565b600061063a82610864565b90508073ffffffffffffffffffffffffffffffffffffffff168373ffffffffffffffffffffffffffffffffffffffff1614156106ab576040517f08c379a00000000000000000000000000000000000000000000000000000000081526004016106a290612bb8565b60405180910390fd5b8073ffffffffffffffffffffffffffffffffffffffff166106ca6113c1565b73ffffffffffffffffffffffffffffffffffffffff1614806106f957506106f8816106f36113c1565b61115f565b5b610738576040517f08c379a000000000000000000000000000000000000000000000000000000000815260040161072f90612c4a565b60405180910390fd5b61074283836113c9565b505050565b6107586107526113c1565b82611482565b610797576040517f08c379a000000000000000000000000000000000000000000000000000000000815260040161078e90612cdc565b60405180910390fd5b6107a2838383611560565b505050565b6107af6113c1565b73ffffffffffffffffffffffffffffffffffffffff166107cd610c7a565b73ffffffffffffffffffffffffffffffffffffffff1614610823576040517f08c379a000000000000000000000000000000000000000000000000000000000815260040161081a90612d48565b60405180910390fd5b61082b6117c7565b565b61084883838360405180602001604052806000815250611054565b505050565b6000600660009054906101000a900460ff16905090565b6000806002600084815260200190815260200160002060009054906101000a900473ffffffffffffffffffffffffffffffffffffffff169050600073ffffffffffffffffffffffffffffffffffffffff168173ffffffffffffffffffffffffffffffffffffffff16141561090d576040517f08c379a000000000000000000000000000000000000000000000000000000000815260040161090490612dda565b60405180910390fd5b80915050919050565b60006109206113c1565b73ffffffffffffffffffffffffffffffffffffffff1661093e610c7a565b73ffffffffffffffffffffffffffffffffffffffff1614610994576040517f08c379a000000000000000000000000000000000000000000000000000000000815260040161098b90612d48565b60405180910390fd5b61099c61084d565b156109dc576040517f08c379a00000000000000000000000000000000000000000000000000000000081526004016109d390612e46565b60405180910390fd5b6109e66009611869565b6109f0600961187f565b90506109fc828261188d565b610a068282611a67565b919050565b60008073ffffffffffffffffffffffffffffffffffffffff168273ffffffffffffffffffffffffffffffffffffffff161415610a7c576040517f08c379a0000000000000000000000000000000000000000000000000000000008152600401610a7390612ed8565b60405180910390fd5b600360008373ffffffffffffffffffffffffffffffffffffffff1673ffffffffffffffffffffffffffffffffffffffff168152602001908152602001600020549050919050565b610acb6113c1565b73ffffffffffffffffffffffffffffffffffffffff16610ae9610c7a565b73ffffffffffffffffffffffffffffffffffffffff1614610b3f576040517f08c379a0000000000000000000000000000000000000000000000000000000008152600401610b3690612d48565b60405180910390fd5b610b496000611b81565b565b610b536113c1565b73ffffffffffffffffffffffffffffffffffffffff16610b71610c7a565b73ffffffffffffffffffffffffffffffffffffffff1614610bc7576040517f08c379a0000000000000000000000000000000000000000000000000000000008152600401610bbe90612d48565b60405180910390fd5b610bcf611c47565b565b6000610bdb6113c1565b73ffffffffffffffffffffffffffffffffffffffff16610bf9610c7a565b73ffffffffffffffffffffffffffffffffffffffff1614610c4f576040517f08c379a0000000000000000000000000000000000000000000000000000000008152600401610c4690612d48565b60405180910390fd5b6008600083815260200190815260200160002060009054906101000a900463ffffffff169050919050565b6000600660019054906101000a900473ffffffffffffffffffffffffffffffffffffffff16905090565b606060018054610cb390612a82565b80601f0160208091040260200160405190810160405280929190818152602001828054610cdf90612a82565b8015610d2c5780601f10610d0157610100808354040283529160200191610d2c565b820191906000526020600020905b815481529060010190602001808311610d0f57829003601f168201915b5050505050905090565b610d48610d416113c1565b8383611cea565b5050565b606080610d576113c1565b73ffffffffffffffffffffffffffffffffffffffff16610d75610c7a565b73ffffffffffffffffffffffffffffffffffffffff1614610dcb576040517f08c379a0000000000000000000000000000000000000000000000000000000008152600401610dc290612d48565b60405180910390fd5b610dd361084d565b15610e13576040517f08c379a0000000000000000000000000000000000000000000000000000000008152600401610e0a90612e46565b60405180910390fd5b610e1c83611355565b610e5b576040517f08c379a0000000000000000000000000000000000000000000000000000000008152600401610e5290612f6a565b60405180910390fd5b60006008600085815260200190815260200160002060009054906101000a900463ffffffff1690508063ffffffff1667ffffffffffffffff811115610ea357610ea2612865565b5b604051908082528060200260200182016040528015610ed15781602001602082028036833780820191505090505b5092508063ffffffff1667ffffffffffffffff811115610ef457610ef3612865565b5b604051908082528060200260200182016040528015610f225781602001602082028036833780820191505090505b50915060005b8163ffffffff168163ffffffff16101561104d576007600086815260200190815260200160002060008263ffffffff1663ffffffff16815260200190815260200160002060000154848263ffffffff1681518110610f8957610f88612f8a565b5b6020026020010181815250506007600086815260200190815260200160002060008263ffffffff1663ffffffff16815260200190815260200160002060010160009054906101000a900473ffffffffffffffffffffffffffffffffffffffff16838263ffffffff168151811061100257611001612f8a565b5b602002602001019073ffffffffffffffffffffffffffffffffffffffff16908173ffffffffffffffffffffffffffffffffffffffff16815250508061104690612fe8565b9050610f28565b5050915091565b61105c61084d565b1561109c576040517f08c379a000000000000000000000000000000000000000000000000000000000815260040161109390612e46565b60405180910390fd5b6110a884848484611e57565b6110b28383611a67565b50505050565b60606110c382611355565b611102576040517f08c379a00000000000000000000000000000000000000000000000000000000081526004016110f990613087565b60405180910390fd5b600061110c611eb9565b9050600081511161112c5760405180602001604052806000815250611157565b8061113684611ed9565b6040516020016111479291906130e3565b6040516020818303038152906040525b915050919050565b6000600560008473ffffffffffffffffffffffffffffffffffffffff1673ffffffffffffffffffffffffffffffffffffffff16815260200190815260200160002060008373ffffffffffffffffffffffffffffffffffffffff1673ffffffffffffffffffffffffffffffffffffffff16815260200190815260200160002060009054906101000a900460ff16905092915050565b6111fb6113c1565b73ffffffffffffffffffffffffffffffffffffffff16611219610c7a565b73ffffffffffffffffffffffffffffffffffffffff161461126f576040517f08c379a000000000000000000000000000000000000000000000000000000000815260040161126690612d48565b60405180910390fd5b600073ffffffffffffffffffffffffffffffffffffffff168173ffffffffffffffffffffffffffffffffffffffff1614156112df576040517f08c379a00000000000000000000000000000000000000000000000000000000081526004016112d690613179565b60405180910390fd5b6112e881611b81565b50565b60007f01ffc9a7000000000000000000000000000000000000000000000000000000007bffffffffffffffffffffffffffffffffffffffffffffffffffffffff1916827bffffffffffffffffffffffffffffffffffffffffffffffffffffffff1916149050919050565b60008073ffffffffffffffffffffffffffffffffffffffff166002600084815260200190815260200160002060009054906101000a900473ffffffffffffffffffffffffffffffffffffffff1673ffffffffffffffffffffffffffffffffffffffff1614159050919050565b600033905090565b816004600083815260200190815260200160002060006101000a81548173ffffffffffffffffffffffffffffffffffffffff021916908373ffffffffffffffffffffffffffffffffffffffff160217905550808273ffffffffffffffffffffffffffffffffffffffff1661143c83610864565b73ffffffffffffffffffffffffffffffffffffffff167f8c5be1e5ebec7d5bd14f71427d1e84f3dd0314c0f7b2291e5b200ac8c7c3b92560405160405180910390a45050565b600061148d82611355565b6114cc576040517f08c379a00000000000000000000000000000000000000000000000000000000081526004016114c39061320b565b60405180910390fd5b60006114d783610864565b90508073ffffffffffffffffffffffffffffffffffffffff168473ffffffffffffffffffffffffffffffffffffffff16148061154657508373ffffffffffffffffffffffffffffffffffffffff1661152e846105aa565b73ffffffffffffffffffffffffffffffffffffffff16145b806115575750611556818561115f565b5b91505092915050565b8273ffffffffffffffffffffffffffffffffffffffff1661158082610864565b73ffffffffffffffffffffffffffffffffffffffff16146115d6576040517f08c379a00000000000000000000000000000000000000000000000000000000081526004016115cd9061329d565b60405180910390fd5b600073ffffffffffffffffffffffffffffffffffffffff168273ffffffffffffffffffffffffffffffffffffffff161415611646576040517f08c379a000000000000000000000000000000000000000000000000000000000815260040161163d9061332f565b60405180910390fd5b61165183838361203a565b61165c6000826113c9565b6001600360008573ffffffffffffffffffffffffffffffffffffffff1673ffffffffffffffffffffffffffffffffffffffff16815260200190815260200160002060008282546116ac919061334f565b925050819055506001600360008473ffffffffffffffffffffffffffffffffffffffff1673ffffffffffffffffffffffffffffffffffffffff16815260200190815260200160002060008282546117039190613383565b92505081905550816002600083815260200190815260200160002060006101000a81548173ffffffffffffffffffffffffffffffffffffffff021916908373ffffffffffffffffffffffffffffffffffffffff160217905550808273ffffffffffffffffffffffffffffffffffffffff168473ffffffffffffffffffffffffffffffffffffffff167fddf252ad1be2c89b69c2b068fc378daa952ba7f163c4a11628f55a4df523b3ef60405160405180910390a46117c2838383612092565b505050565b6117cf61084d565b61180e576040517f08c379a000000000000000000000000000000000000000000000000000000000815260040161180590613425565b60405180910390fd5b6000600660006101000a81548160ff0219169083151502179055507f5db9ee0a495bf2e6ff9c91a7834c1ba4fdd244a5e8aa4e537bd38aeae4b073aa6118526113c1565b60405161185f91906124d1565b60405180910390a1565b6001816000016000828254019250508190555050565b600081600001549050919050565b600073ffffffffffffffffffffffffffffffffffffffff168273ffffffffffffffffffffffffffffffffffffffff1614156118fd576040517f08c379a00000000000000000000000000000000000000000000000000000000081526004016118f490613491565b60405180910390fd5b61190681611355565b15611946576040517f08c379a000000000000000000000000000000000000000000000000000000000815260040161193d906134fd565b60405180910390fd5b6119526000838361203a565b6001600360008473ffffffffffffffffffffffffffffffffffffffff1673ffffffffffffffffffffffffffffffffffffffff16815260200190815260200160002060008282546119a29190613383565b92505081905550816002600083815260200190815260200160002060006101000a81548173ffffffffffffffffffffffffffffffffffffffff021916908373ffffffffffffffffffffffffffffffffffffffff160217905550808273ffffffffffffffffffffffffffffffffffffffff16600073ffffffffffffffffffffffffffffffffffffffff167fddf252ad1be2c89b69c2b068fc378daa952ba7f163c4a11628f55a4df523b3ef60405160405180910390a4611a6360008383612092565b5050565b60006008600083815260200190815260200160002060009054906101000a900463ffffffff16905060405180604001604052804281526020018473ffffffffffffffffffffffffffffffffffffffff168152506007600084815260200190815260200160002060008363ffffffff1663ffffffff1681526020019081526020016000206000820151816000015560208201518160010160006101000a81548173ffffffffffffffffffffffffffffffffffffffff021916908373ffffffffffffffffffffffffffffffffffffffff160217905550905050600181611b4b919061351d565b6008600084815260200190815260200160002060006101000a81548163ffffffff021916908363ffffffff160217905550505050565b6000600660019054906101000a900473ffffffffffffffffffffffffffffffffffffffff16905081600660016101000a81548173ffffffffffffffffffffffffffffffffffffffff021916908373ffffffffffffffffffffffffffffffffffffffff1602179055508173ffffffffffffffffffffffffffffffffffffffff168173ffffffffffffffffffffffffffffffffffffffff167f8be0079c531659141344cd1fd0a4f28419497f9722a3daafe3b4186f6b6457e060405160405180910390a35050565b611c4f61084d565b15611c8f576040517f08c379a0000000000000000000000000000000000000000000000000000000008152600401611c8690612e46565b60405180910390fd5b6001600660006101000a81548160ff0219169083151502179055507f62e78cea01bee320cd4e420270b5ea74000d11b0c9f74754ebdbfc544b05a258611cd36113c1565b604051611ce091906124d1565b60405180910390a1565b8173ffffffffffffffffffffffffffffffffffffffff168373ffffffffffffffffffffffffffffffffffffffff161415611d59576040517f08c379a0000000000000000000000000000000000000000000000000000000008152600401611d50906135a3565b60405180910390fd5b80600560008573ffffffffffffffffffffffffffffffffffffffff1673ffffffffffffffffffffffffffffffffffffffff16815260200190815260200160002060008473ffffffffffffffffffffffffffffffffffffffff1673ffffffffffffffffffffffffffffffffffffffff16815260200190815260200160002060006101000a81548160ff0219169083151502179055508173ffffffffffffffffffffffffffffffffffffffff168373ffffffffffffffffffffffffffffffffffffffff167f17307eab39ab6107e8899845ad3d59bd9653f200f220920489ca2b5937696c3183604051611e4a9190612357565b60405180910390a3505050565b611e68611e626113c1565b83611482565b611ea7576040517f08c379a0000000000000000000000000000000000000000000000000000000008152600401611e9e90612cdc565b60405180910390fd5b611eb384848484612097565b50505050565b60606040518060600160405280602981526020016138a560299139905090565b60606000821415611f21576040518060400160405280600181526020017f30000000000000000000000000000000000000000000000000000000000000008152509050612035565b600082905060005b60008214611f53578080611f3c906135c3565b915050600a82611f4c919061363b565b9150611f29565b60008167ffffffffffffffff811115611f6f57611f6e612865565b5b6040519080825280601f01601f191660200182016040528015611fa15781602001600182028036833780820191505090505b5090505b6000851461202e57600182611fba919061334f565b9150600a85611fc9919061366c565b6030611fd59190613383565b60f81b818381518110611feb57611fea612f8a565b5b60200101907effffffffffffffffffffffffffffffffffffffffffffffffffffffffffffff1916908160001a905350600a85612027919061363b565b9450611fa5565b8093505050505b919050565b6120458383836120f3565b61204d61084d565b1561208d576040517f08c379a00000000000000000000000000000000000000000000000000000000081526004016120849061370f565b60405180910390fd5b505050565b505050565b6120a2848484611560565b6120ae848484846120f8565b6120ed576040517f08c379a00000000000000000000000000000000000000000000000000000000081526004016120e4906137a1565b60405180910390fd5b50505050565b505050565b60006121198473ffffffffffffffffffffffffffffffffffffffff16612280565b15612273578373ffffffffffffffffffffffffffffffffffffffff1663150b7a026121426113c1565b8786866040518563ffffffff1660e01b81526004016121649493929190613816565b6020604051808303816000875af19250505080156121a057506040513d601f19601f8201168201806040525081019061219d9190613877565b60015b612223573d80600081146121d0576040519150601f19603f3d011682016040523d82523d6000602084013e6121d5565b606091505b5060008151141561221b576040517f08c379a0000000000000000000000000000000000000000000000000000000008152600401612212906137a1565b60405180910390fd5b805181602001fd5b63150b7a0260e01b7bffffffffffffffffffffffffffffffffffffffffffffffffffffffff1916817bffffffffffffffffffffffffffffffffffffffffffffffffffffffff191614915050612278565b600190505b949350505050565b6000808273ffffffffffffffffffffffffffffffffffffffff163b119050919050565b6000604051905090565b600080fd5b600080fd5b60007fffffffff0000000000000000000000000000000000000000000000000000000082169050919050565b6122ec816122b7565b81146122f757600080fd5b50565b600081359050612309816122e3565b92915050565b600060208284031215612325576123246122ad565b5b6000612333848285016122fa565b91505092915050565b60008115159050919050565b6123518161233c565b82525050565b600060208201905061236c6000830184612348565b92915050565b600081519050919050565b600082825260208201905092915050565b60005b838110156123ac578082015181840152602081019050612391565b838111156123bb576000848401525b50505050565b6000601f19601f8301169050919050565b60006123dd82612372565b6123e7818561237d565b93506123f781856020860161238e565b612400816123c1565b840191505092915050565b6000602082019050818103600083015261242581846123d2565b905092915050565b6000819050919050565b6124408161242d565b811461244b57600080fd5b50565b60008135905061245d81612437565b92915050565b600060208284031215612479576124786122ad565b5b60006124878482850161244e565b91505092915050565b600073ffffffffffffffffffffffffffffffffffffffff82169050919050565b60006124bb82612490565b9050919050565b6124cb816124b0565b82525050565b60006020820190506124e660008301846124c2565b92915050565b6124f5816124b0565b811461250057600080fd5b50565b600081359050612512816124ec565b92915050565b6000806040838503121561252f5761252e6122ad565b5b600061253d85828601612503565b925050602061254e8582860161244e565b9150509250929050565b600080600060608486031215612571576125706122ad565b5b600061257f86828701612503565b935050602061259086828701612503565b92505060406125a18682870161244e565b9150509250925092565b6000602082840312156125c1576125c06122ad565b5b60006125cf84828501612503565b91505092915050565b6125e18161242d565b82525050565b60006020820190506125fc60008301846125d8565b92915050565b600063ffffffff82169050919050565b61261b81612602565b82525050565b60006020820190506126366000830184612612565b92915050565b6126458161233c565b811461265057600080fd5b50565b6000813590506126628161263c565b92915050565b6000806040838503121561267f5761267e6122ad565b5b600061268d85828601612503565b925050602061269e85828601612653565b9150509250929050565b600081519050919050565b600082825260208201905092915050565b6000819050602082019050919050565b6126dd8161242d565b82525050565b60006126ef83836126d4565b60208301905092915050565b6000602082019050919050565b6000612713826126a8565b61271d81856126b3565b9350612728836126c4565b8060005b8381101561275957815161274088826126e3565b975061274b836126fb565b92505060018101905061272c565b5085935050505092915050565b600081519050919050565b600082825260208201905092915050565b6000819050602082019050919050565b61279b816124b0565b82525050565b60006127ad8383612792565b60208301905092915050565b6000602082019050919050565b60006127d182612766565b6127db8185612771565b93506127e683612782565b8060005b838110156128175781516127fe88826127a1565b9750612809836127b9565b9250506001810190506127ea565b5085935050505092915050565b6000604082019050818103600083015261283e8185612708565b9050818103602083015261285281846127c6565b90509392505050565b600080fd5b600080fd5b7f4e487b7100000000000000000000000000000000000000000000000000000000600052604160045260246000fd5b61289d826123c1565b810181811067ffffffffffffffff821117156128bc576128bb612865565b5b80604052505050565b60006128cf6122a3565b90506128db8282612894565b919050565b600067ffffffffffffffff8211156128fb576128fa612865565b5b612904826123c1565b9050602081019050919050565b82818337600083830152505050565b600061293361292e846128e0565b6128c5565b90508281526020810184848401111561294f5761294e612860565b5b61295a848285612911565b509392505050565b600082601f8301126129775761297661285b565b5b8135612987848260208601612920565b91505092915050565b600080600080608085870312156129aa576129a96122ad565b5b60006129b887828801612503565b94505060206129c987828801612503565b93505060406129da8782880161244e565b925050606085013567ffffffffffffffff8111156129fb576129fa6122b2565b5b612a0787828801612962565b91505092959194509250565b60008060408385031215612a2a57612a296122ad565b5b6000612a3885828601612503565b9250506020612a4985828601612503565b9150509250929050565b7f4e487b7100000000000000000000000000000000000000000000000000000000600052602260045260246000fd5b60006002820490506001821680612a9a57607f821691505b60208210811415612aae57612aad612a53565b5b50919050565b7f4552433732313a20617070726f76656420717565727920666f72206e6f6e657860008201527f697374656e7420746f6b656e0000000000000000000000000000000000000000602082015250565b6000612b10602c8361237d565b9150612b1b82612ab4565b604082019050919050565b60006020820190508181036000830152612b3f81612b03565b9050919050565b7f4552433732313a20617070726f76616c20746f2063757272656e74206f776e6560008201527f7200000000000000000000000000000000000000000000000000000000000000602082015250565b6000612ba260218361237d565b9150612bad82612b46565b604082019050919050565b60006020820190508181036000830152612bd181612b95565b9050919050565b7f4552433732313a20617070726f76652063616c6c6572206973206e6f74206f7760008201527f6e6572206e6f7220617070726f76656420666f7220616c6c0000000000000000602082015250565b6000612c3460388361237d565b9150612c3f82612bd8565b604082019050919050565b60006020820190508181036000830152612c6381612c27565b9050919050565b7f4552433732313a207472616e736665722063616c6c6572206973206e6f74206f60008201527f776e6572206e6f7220617070726f766564000000000000000000000000000000602082015250565b6000612cc660318361237d565b9150612cd182612c6a565b604082019050919050565b60006020820190508181036000830152612cf581612cb9565b9050919050565b7f4f776e61626c653a2063616c6c6572206973206e6f7420746865206f776e6572600082015250565b6000612d3260208361237d565b9150612d3d82612cfc565b602082019050919050565b60006020820190508181036000830152612d6181612d25565b9050919050565b7f4552433732313a206f776e657220717565727920666f72206e6f6e657869737460008201527f656e7420746f6b656e0000000000000000000000000000000000000000000000602082015250565b6000612dc460298361237d565b9150612dcf82612d68565b604082019050919050565b60006020820190508181036000830152612df381612db7565b9050919050565b7f5061757361626c653a2070617573656400000000000000000000000000000000600082015250565b6000612e3060108361237d565b9150612e3b82612dfa565b602082019050919050565b60006020820190508181036000830152612e5f81612e23565b9050919050565b7f4552433732313a2062616c616e636520717565727920666f7220746865207a6560008201527f726f206164647265737300000000000000000000000000000000000000000000602082015250565b6000612ec2602a8361237d565b9150612ecd82612e66565b604082019050919050565b60006020820190508181036000830152612ef181612eb5565b9050919050565b7f47616e613a205472616e7366657220686973746f727920717565727920666f7260008201527f206e6f6e6578697374656e7420746f6b656e4964000000000000000000000000602082015250565b6000612f5460348361237d565b9150612f5f82612ef8565b604082019050919050565b60006020820190508181036000830152612f8381612f47565b9050919050565b7f4e487b7100000000000000000000000000000000000000000000000000000000600052603260045260246000fd5b7f4e487b7100000000000000000000000000000000000000000000000000000000600052601160045260246000fd5b6000612ff382612602565b915063ffffffff82141561300a57613009612fb9565b5b600182019050919050565b7f4552433732314d657461646174613a2055524920717565727920666f72206e6f60008201527f6e6578697374656e7420746f6b656e0000000000000000000000000000000000602082015250565b6000613071602f8361237d565b915061307c82613015565b604082019050919050565b600060208201905081810360008301526130a081613064565b9050919050565b600081905092915050565b60006130bd82612372565b6130c781856130a7565b93506130d781856020860161238e565b80840191505092915050565b60006130ef82856130b2565b91506130fb82846130b2565b91508190509392505050565b7f4f776e61626c653a206e6577206f776e657220697320746865207a65726f206160008201527f6464726573730000000000000000000000000000000000000000000000000000602082015250565b600061316360268361237d565b915061316e82613107565b604082019050919050565b6000602082019050818103600083015261319281613156565b9050919050565b7f4552433732313a206f70657261746f7220717565727920666f72206e6f6e657860008201527f697374656e7420746f6b656e0000000000000000000000000000000000000000602082015250565b60006131f5602c8361237d565b915061320082613199565b604082019050919050565b60006020820190508181036000830152613224816131e8565b9050919050565b7f4552433732313a207472616e736665722066726f6d20696e636f72726563742060008201527f6f776e6572000000000000000000000000000000000000000000000000000000602082015250565b600061328760258361237d565b91506132928261322b565b604082019050919050565b600060208201905081810360008301526132b68161327a565b9050919050565b7f4552433732313a207472616e7366657220746f20746865207a65726f2061646460008201527f7265737300000000000000000000000000000000000000000000000000000000602082015250565b600061331960248361237d565b9150613324826132bd565b604082019050919050565b600060208201905081810360008301526133488161330c565b9050919050565b600061335a8261242d565b91506133658361242d565b92508282101561337857613377612fb9565b5b828203905092915050565b600061338e8261242d565b91506133998361242d565b9250827fffffffffffffffffffffffffffffffffffffffffffffffffffffffffffffffff038211156133ce576133cd612fb9565b5b828201905092915050565b7f5061757361626c653a206e6f7420706175736564000000000000000000000000600082015250565b600061340f60148361237d565b915061341a826133d9565b602082019050919050565b6000602082019050818103600083015261343e81613402565b9050919050565b7f4552433732313a206d696e7420746f20746865207a65726f2061646472657373600082015250565b600061347b60208361237d565b915061348682613445565b602082019050919050565b600060208201905081810360008301526134aa8161346e565b9050919050565b7f4552433732313a20746f6b656e20616c7265616479206d696e74656400000000600082015250565b60006134e7601c8361237d565b91506134f2826134b1565b602082019050919050565b60006020820190508181036000830152613516816134da565b9050919050565b600061352882612602565b915061353383612602565b92508263ffffffff0382111561354c5761354b612fb9565b5b828201905092915050565b7f4552433732313a20617070726f766520746f2063616c6c657200000000000000600082015250565b600061358d60198361237d565b915061359882613557565b602082019050919050565b600060208201905081810360008301526135bc81613580565b9050919050565b60006135ce8261242d565b91507fffffffffffffffffffffffffffffffffffffffffffffffffffffffffffffffff82141561360157613600612fb9565b5b600182019050919050565b7f4e487b7100000000000000000000000000000000000000000000000000000000600052601260045260246000fd5b60006136468261242d565b91506136518361242d565b9250826136615761366061360c565b5b828204905092915050565b60006136778261242d565b91506136828361242d565b9250826136925761369161360c565b5b828206905092915050565b7f4552433732315061757361626c653a20746f6b656e207472616e73666572207760008201527f68696c6520706175736564000000000000000000000000000000000000000000602082015250565b60006136f9602b8361237d565b91506137048261369d565b604082019050919050565b60006020820190508181036000830152613728816136ec565b9050919050565b7f4552433732313a207472616e7366657220746f206e6f6e20455243373231526560008201527f63656976657220696d706c656d656e7465720000000000000000000000000000602082015250565b600061378b60328361237d565b91506137968261372f565b604082019050919050565b600060208201905081810360008301526137ba8161377e565b9050919050565b600081519050919050565b600082825260208201905092915050565b60006137e8826137c1565b6137f281856137cc565b935061380281856020860161238e565b61380b816123c1565b840191505092915050565b600060808201905061382b60008301876124c2565b61383860208301866124c2565b61384560408301856125d8565b818103606083015261385781846137dd565b905095945050505050565b600081519050613871816122e3565b92915050565b60006020828403121561388d5761388c6122ad565b5b600061389b84828501613862565b9150509291505056fe687474703a2f2f6c6f63616c686f73743a343030302f6170692f76312f742f67616e612f6d6574612fa2646970667358221220b3df8b16cffba2c26560276ee547338f7759b3881dbaafa86beff32b225a742764736f6c634300080b0033",
  "immutableReferences": {},
  "source": "// contracts/gana.sol\n// SPDX-License-Identifier: MIT\npragma solidity ^0.8.0;\nimport \"@openzeppelin/contracts/token/ERC721/extensions/ERC721Pausable.sol\";\nimport \"@openzeppelin/contracts/access/Ownable.sol\";\nimport \"@openzeppelin/contracts/utils/Counters.sol\";\n\ncontract Gana is ERC721Pausable, Ownable {\n\n    using Counters for Counters.Counter;\n\n    // TransferHistory structure\n    struct TransferHistory {\n        uint256 timeStamp;\n        address to; \n    }\n    \n    // Mapping from token ID to transfer history\n    mapping(uint256 => mapping(uint32 => TransferHistory)) private _transferHistory;\n\n    // Mapping from token ID to transfer count\n    mapping(uint256 => uint32) private _transferCounts;\n\n    Counters.Counter private _tokenIds;\n\n    constructor () ERC721(\"Gana\", \"gana\") {\n\n    }\n\n    function addToTransferHistory (\n        address to,\n        uint256 tokenId\n    ) internal {\n        uint32 transferCount = _transferCounts[tokenId];\n        _transferHistory[tokenId][transferCount] = TransferHistory({\n            timeStamp: block.timestamp,\n            to: to\n        });\n        _transferCounts[tokenId] = transferCount + 1;\n    }\n\n    function safeTransferFrom(\n        address from,\n        address to,\n        uint256 tokenId,\n        bytes memory _data\n    ) public override whenNotPaused {\n        super.safeTransferFrom(from, to, tokenId, _data);\n        addToTransferHistory(to, tokenId);\n    }\n\n    function retrieveTransferCounts(\n        uint256 tokenId\n    ) public view onlyOwner returns (\n        uint32 transferCount\n    ) {\n        transferCount = _transferCounts[tokenId];\n    }\n\n    function retrieveTransferHistory(\n        uint256 tokenId\n    ) public view onlyOwner whenNotPaused returns (\n        uint256[] memory timeStamp,\n        address[] memory to\n    ) {\n        require(_exists(tokenId), \"Gana: Transfer history query for nonexistent tokenId\");\n\n        uint32 transferCount = _transferCounts[tokenId];\n        timeStamp = new uint256[](transferCount);\n        to = new address[](transferCount);\n\n        for(uint32 i=0; i<transferCount; ++i) {\n            timeStamp[i] = _transferHistory[tokenId][i].timeStamp;\n            to[i] = _transferHistory[tokenId][i].to;\n        } \n    }\n\n    function mint(\n        address to\n    ) public onlyOwner whenNotPaused returns (\n        uint256 tokenId\n    ){\n        _tokenIds.increment();\n        tokenId = _tokenIds.current();\n        super._mint(to, tokenId);\n        addToTransferHistory(to, tokenId);\n    }\n\n    function _baseURI() internal pure override returns (string memory) {\n        return \"http://localhost:4000/api/v1/t/gana/meta/\";\n    }\n\n    function pause() public onlyOwner {\n        super._pause();\n    }\n\n    function unpause() public onlyOwner {\n        super._unpause();\n    }\n}",
  "sourcePath": "/home/mohan/Work/Eth/gana/contracts/gana.sol",
  "compiler": {
    "name": "solc",
    "version": "0.8.11+commit.d7f03943.Emscripten.clang"
  },
  "schemaVersion": "3.4.5",
  "updatedAt": "2022-04-19T03:24:09.066Z",
  "networkType": "ethereum",
  "devdoc": {
    "kind": "dev",
    "methods": {
      "approve(address,uint256)": {
        "details": "See {IERC721-approve}."
      },
      "balanceOf(address)": {
        "details": "See {IERC721-balanceOf}."
      },
      "getApproved(uint256)": {
        "details": "See {IERC721-getApproved}."
      },
      "isApprovedForAll(address,address)": {
        "details": "See {IERC721-isApprovedForAll}."
      },
      "name()": {
        "details": "See {IERC721Metadata-name}."
      },
      "owner()": {
        "details": "Returns the address of the current owner."
      },
      "ownerOf(uint256)": {
        "details": "See {IERC721-ownerOf}."
      },
      "paused()": {
        "details": "Returns true if the contract is paused, and false otherwise."
      },
      "renounceOwnership()": {
        "details": "Leaves the contract without owner. It will not be possible to call `onlyOwner` functions anymore. Can only be called by the current owner. NOTE: Renouncing ownership will leave the contract without an owner, thereby removing any functionality that is only available to the owner."
      },
      "safeTransferFrom(address,address,uint256)": {
        "details": "See {IERC721-safeTransferFrom}."
      },
      "safeTransferFrom(address,address,uint256,bytes)": {
        "details": "See {IERC721-safeTransferFrom}."
      },
      "setApprovalForAll(address,bool)": {
        "details": "See {IERC721-setApprovalForAll}."
      },
      "supportsInterface(bytes4)": {
        "details": "See {IERC165-supportsInterface}."
      },
      "symbol()": {
        "details": "See {IERC721Metadata-symbol}."
      },
      "tokenURI(uint256)": {
        "details": "See {IERC721Metadata-tokenURI}."
      },
      "transferFrom(address,address,uint256)": {
        "details": "See {IERC721-transferFrom}."
      },
      "transferOwnership(address)": {
        "details": "Transfers ownership of the contract to a new account (`newOwner`). Can only be called by the current owner."
      }
    },
    "version": 1
  },
  "userdoc": {
    "kind": "user",
    "methods": {},
    "version": 1
  }
}